{
  "_format": "hh-sol-artifact-1",
  "contractName": "Whitelist",
  "sourceName": "contracts/Whitelist.sol",
  "abi": [
    {
      "inputs": [
        {
          "internalType": "uint8",
          "name": "_maxWhitelistedAddresses",
          "type": "uint8"
        }
      ],
      "stateMutability": "nonpayable",
      "type": "constructor"
    },
    {
      "inputs": [],
      "name": "addAddressToWhitelist",
      "outputs": [],
      "stateMutability": "nonpayable",
      "type": "function"
    },
    {
      "inputs": [],
      "name": "maxWhitelistedAddresses",
      "outputs": [
        {
          "internalType": "uint8",
          "name": "",
          "type": "uint8"
        }
      ],
      "stateMutability": "view",
      "type": "function"
    },
    {
      "inputs": [],
      "name": "numAddressesWhitelisted",
      "outputs": [
        {
          "internalType": "uint8",
          "name": "",
          "type": "uint8"
        }
      ],
      "stateMutability": "view",
      "type": "function"
    },
    {
      "inputs": [
        {
          "internalType": "address",
          "name": "",
          "type": "address"
        }
      ],
      "name": "whitelistedAddresses",
      "outputs": [
        {
          "internalType": "bool",
          "name": "",
          "type": "bool"
        }
      ],
      "stateMutability": "view",
      "type": "function"
    }
  ],
  "bytecode": "0x608060405234801561001057600080fd5b506040516105b03803806105b083398181016040528101906100329190610067565b806000806101000a81548160ff021916908360ff160217905550506100b4565b6000815190506100618161009d565b92915050565b60006020828403121561007957600080fd5b600061008784828501610052565b91505092915050565b600060ff82169050919050565b6100a681610090565b81146100b157600080fd5b50565b6104ed806100c36000396000f3fe608060405234801561001057600080fd5b506004361061004c5760003560e01c806306c933d81461005157806331a72188146100815780634011d7cd1461009f5780638e7314d9146100bd575b600080fd5b61006b600480360381019061006691906102a1565b6100c7565b6040516100789190610368565b60405180910390f35b6100896100e7565b60405161009691906103c3565b60405180910390f35b6100a76100f8565b6040516100b491906103c3565b60405180910390f35b6100c561010b565b005b60016020528060005260406000206000915054906101000a900460ff1681565b60008054906101000a900460ff1681565b600060019054906101000a900460ff1681565b600160003373ffffffffffffffffffffffffffffffffffffffff1673ffffffffffffffffffffffffffffffffffffffff16815260200190815260200160002060009054906101000a900460ff1615610198576040517f08c379a000000000000000000000000000000000000000000000000000000000815260040161018f90610383565b60405180910390fd5b60008054906101000a900460ff1660ff16600060019054906101000a900460ff1660ff16106101fc576040517f08c379a00000000000000000000000000000000000000000000000000000000081526004016101f3906103a3565b60405180910390fd5b60018060003373ffffffffffffffffffffffffffffffffffffffff1673ffffffffffffffffffffffffffffffffffffffff16815260200190815260200160002060006101000a81548160ff0219169083151502179055506001600060018282829054906101000a900460ff1661027291906103ef565b92506101000a81548160ff021916908360ff160217905550565b60008135905061029b816104a0565b92915050565b6000602082840312156102b357600080fd5b60006102c18482850161028c565b91505092915050565b6102d381610438565b82525050565b60006102e6601f836103de565b91507f53656e64657220616c726561647920696e207468652077686974656c697374006000830152602082019050919050565b60006103266011836103de565b91507f4d6178206c696d697420726561636865640000000000000000000000000000006000830152602082019050919050565b61036281610464565b82525050565b600060208201905061037d60008301846102ca565b92915050565b6000602082019050818103600083015261039c816102d9565b9050919050565b600060208201905081810360008301526103bc81610319565b9050919050565b60006020820190506103d86000830184610359565b92915050565b600082825260208201905092915050565b60006103fa82610464565b915061040583610464565b92508260ff0382111561041b5761041a610471565b5b828201905092915050565b600061043182610444565b9050919050565b60008115159050919050565b600073ffffffffffffffffffffffffffffffffffffffff82169050919050565b600060ff82169050919050565b7f4e487b7100000000000000000000000000000000000000000000000000000000600052601160045260246000fd5b6104a981610426565b81146104b457600080fd5b5056fea26469706673582212205d8d3c8b84f8edc0e28f277e1feb76cd2ff8fd2d6cf67226d1a8a5e3e30bbd2564736f6c63430008000033",
  "linkReferences": {},
  "deployedLinkReferences": {}
}